{
  "contractName": "Vega_Staking_Bridge",
  "abi": [
    {
      "inputs": [
        {
          "internalType": "address",
          "name": "token",
          "type": "address"
        }
      ],
      "stateMutability": "nonpayable",
      "type": "constructor"
    },
    {
      "anonymous": false,
      "inputs": [
        {
          "indexed": true,
          "internalType": "address",
          "name": "user",
          "type": "address"
        },
        {
          "indexed": false,
          "internalType": "uint256",
          "name": "amount",
          "type": "uint256"
        },
        {
          "indexed": true,
          "internalType": "bytes32",
          "name": "vega_public_key",
          "type": "bytes32"
        }
      ],
      "name": "Stake_Deposited",
      "type": "event"
    },
    {
      "anonymous": false,
      "inputs": [
        {
          "indexed": true,
          "internalType": "address",
          "name": "user",
          "type": "address"
        },
        {
          "indexed": false,
          "internalType": "uint256",
          "name": "amount",
          "type": "uint256"
        },
        {
          "indexed": true,
          "internalType": "bytes32",
          "name": "vega_public_key",
          "type": "bytes32"
        }
      ],
      "name": "Stake_Removed",
      "type": "event"
    },
    {
      "anonymous": false,
      "inputs": [
        {
          "indexed": true,
          "internalType": "address",
          "name": "from",
          "type": "address"
        },
        {
          "indexed": false,
          "internalType": "uint256",
          "name": "amount",
          "type": "uint256"
        },
        {
          "indexed": true,
          "internalType": "address",
          "name": "to",
          "type": "address"
        },
        {
          "indexed": true,
          "internalType": "bytes32",
          "name": "vega_public_key",
          "type": "bytes32"
        }
      ],
      "name": "Stake_Transferred",
      "type": "event"
    },
    {
      "inputs": [
        {
          "internalType": "address",
          "name": "",
          "type": "address"
        },
        {
          "internalType": "bytes32",
          "name": "",
          "type": "bytes32"
        }
      ],
      "name": "stake",
      "outputs": [
        {
          "internalType": "uint256",
          "name": "",
          "type": "uint256"
        }
      ],
      "stateMutability": "view",
      "type": "function"
    },
    {
      "inputs": [],
      "name": "staking_token",
      "outputs": [
        {
          "internalType": "address",
          "name": "",
          "type": "address"
        }
      ],
      "stateMutability": "view",
      "type": "function"
    },
    {
      "inputs": [
        {
          "internalType": "uint256",
          "name": "amount",
          "type": "uint256"
        },
        {
          "internalType": "bytes32",
          "name": "vega_public_key",
          "type": "bytes32"
        }
      ],
      "name": "Stake",
      "outputs": [],
      "stateMutability": "nonpayable",
      "type": "function"
    },
    {
      "inputs": [
        {
          "internalType": "uint256",
          "name": "amount",
          "type": "uint256"
        },
        {
          "internalType": "bytes32",
          "name": "vega_public_key",
          "type": "bytes32"
        }
      ],
      "name": "Remove_Stake",
      "outputs": [],
      "stateMutability": "nonpayable",
      "type": "function"
    },
    {
      "inputs": [
        {
          "internalType": "uint256",
          "name": "amount",
          "type": "uint256"
        },
        {
          "internalType": "address",
          "name": "new_address",
          "type": "address"
        },
        {
          "internalType": "bytes32",
          "name": "vega_public_key",
          "type": "bytes32"
        }
      ],
      "name": "Transfer_Stake",
      "outputs": [],
      "stateMutability": "nonpayable",
      "type": "function"
    }
  ],
  "bytecode": "0x608060405234801561001057600080fd5b50604051610a05380380610a058339818101604052810190610032919061008d565b806000806101000a81548173ffffffffffffffffffffffffffffffffffffffff021916908373ffffffffffffffffffffffffffffffffffffffff160217905550506100ff565b600081519050610087816100e8565b92915050565b60006020828403121561009f57600080fd5b60006100ad84828501610078565b91505092915050565b60006100c1826100c8565b9050919050565b600073ffffffffffffffffffffffffffffffffffffffff82169050919050565b6100f1816100b6565b81146100fc57600080fd5b50565b6108f78061010e6000396000f3fe608060405234801561001057600080fd5b50600436106100575760003560e01c80630fb666a21461005c5780631a3419bd146100785780632dc7d74c146100a85780633ec62d80146100c657806397c16d62146100e2575b600080fd5b6100766004803603810190610071919061061b565b6100fe565b005b610092600480360381019061008d91906105b6565b610237565b60405161009f919061073f565b60405180910390f35b6100b061025c565b6040516100bd91906106c4565b60405180910390f35b6100e060048036038101906100db919061066a565b610280565b005b6100fc60048036038101906100f7919061066a565b6103f0565b005b82600160003373ffffffffffffffffffffffffffffffffffffffff1673ffffffffffffffffffffffffffffffffffffffff1681526020019081526020016000206000838152602001908152602001600020600082825461015e91906107b0565b9250508190555082600160008473ffffffffffffffffffffffffffffffffffffffff1673ffffffffffffffffffffffffffffffffffffffff168152602001908152602001600020600083815260200190815260200160002060008282546101c5919061075a565b92505081905550808273ffffffffffffffffffffffffffffffffffffffff163373ffffffffffffffffffffffffffffffffffffffff167f296aca09e6f616abedcd9cd45ac378207310452b7a713289374fd1b35e2c2fbe8660405161022a919061073f565b60405180910390a4505050565b6001602052816000526040600020602052806000526040600020600091509150505481565b60008054906101000a900473ffffffffffffffffffffffffffffffffffffffff1681565b81600160003373ffffffffffffffffffffffffffffffffffffffff1673ffffffffffffffffffffffffffffffffffffffff168152602001908152602001600020600083815260200190815260200160002060008282546102e091906107b0565b9250508190555060008054906101000a900473ffffffffffffffffffffffffffffffffffffffff1673ffffffffffffffffffffffffffffffffffffffff1663a9059cbb33846040518363ffffffff1660e01b8152600401610342929190610716565b602060405180830381600087803b15801561035c57600080fd5b505af1158015610370573d6000803e3d6000fd5b505050506040513d601f19601f8201168201806040525081019061039491906105f2565b61039d57600080fd5b803373ffffffffffffffffffffffffffffffffffffffff167fa131d16963736e4c641f27a7f82f2e350b5971e555ae06ae906892bbba0a0939846040516103e4919061073f565b60405180910390a35050565b60008054906101000a900473ffffffffffffffffffffffffffffffffffffffff1673ffffffffffffffffffffffffffffffffffffffff166323b872dd3330856040518463ffffffff1660e01b815260040161044d939291906106df565b602060405180830381600087803b15801561046757600080fd5b505af115801561047b573d6000803e3d6000fd5b505050506040513d601f19601f8201168201806040525081019061049f91906105f2565b6104a857600080fd5b81600160003373ffffffffffffffffffffffffffffffffffffffff1673ffffffffffffffffffffffffffffffffffffffff16815260200190815260200160002060008381526020019081526020016000206000828254610508919061075a565b92505081905550803373ffffffffffffffffffffffffffffffffffffffff167f9e3e33edf5dcded4adabc51b1266225d00fa41516bfcad69513fa4eca69519da84604051610556919061073f565b60405180910390a35050565b60008135905061057181610865565b92915050565b6000815190506105868161087c565b92915050565b60008135905061059b81610893565b92915050565b6000813590506105b0816108aa565b92915050565b600080604083850312156105c957600080fd5b60006105d785828601610562565b92505060206105e88582860161058c565b9150509250929050565b60006020828403121561060457600080fd5b600061061284828501610577565b91505092915050565b60008060006060848603121561063057600080fd5b600061063e868287016105a1565b935050602061064f86828701610562565b92505060406106608682870161058c565b9150509250925092565b6000806040838503121561067d57600080fd5b600061068b858286016105a1565b925050602061069c8582860161058c565b9150509250929050565b6106af816107e4565b82525050565b6106be8161082c565b82525050565b60006020820190506106d960008301846106a6565b92915050565b60006060820190506106f460008301866106a6565b61070160208301856106a6565b61070e60408301846106b5565b949350505050565b600060408201905061072b60008301856106a6565b61073860208301846106b5565b9392505050565b600060208201905061075460008301846106b5565b92915050565b60006107658261082c565b91506107708361082c565b9250827fffffffffffffffffffffffffffffffffffffffffffffffffffffffffffffffff038211156107a5576107a4610836565b5b828201905092915050565b60006107bb8261082c565b91506107c68361082c565b9250828210156107d9576107d8610836565b5b828203905092915050565b60006107ef8261080c565b9050919050565b60008115159050919050565b6000819050919050565b600073ffffffffffffffffffffffffffffffffffffffff82169050919050565b6000819050919050565b7f4e487b7100000000000000000000000000000000000000000000000000000000600052601160045260246000fd5b61086e816107e4565b811461087957600080fd5b50565b610885816107f6565b811461089057600080fd5b50565b61089c81610802565b81146108a757600080fd5b50565b6108b38161082c565b81146108be57600080fd5b5056fea26469706673582212207014a60d78967c7dd31becde21517b62646a25d96edfb55c4085d5ac8f2c922d64736f6c63430008010033",
  "immutableReferences": {},
  "source": "\n//SPDX-License-Identifier: MIT\npragma solidity 0.8.1;\n\nimport \"./IERC20.sol\";\nimport \"./IStake.sol\";\n\n/// @title ERC20 Staking Bridge\n/// @author Vega Protocol\n/// @notice This contract manages the vesting of the Vega V2 ERC20 token\ncontract Vega_Staking_Bridge is IStake {\n  address public staking_token;\n\n  constructor(address token) {\n    staking_token = token;\n  }\n\n  /// @dev user => amount staked\n  mapping(address => mapping(bytes32 => uint256)) public stake;\n\n  /// @notice This stakes the given amount of tokens and credits them to the provided Vega public key\n  /// @param amount Token amount to stake\n  /// @param vega_public_key Target Vega public key to be credited with the stake\n  /// @dev Emits Stake_Deposited event\n  /// @dev User MUST run \"approve\" on token prior to running Stake\n  function Stake(uint256 amount, bytes32 vega_public_key) public {\n    require(IERC20(staking_token).transferFrom(msg.sender, address(this), amount));\n    stake[msg.sender][vega_public_key] += amount;\n    emit Stake_Deposited(msg.sender, amount, vega_public_key);\n  }\n\n  /// @notice This removes specified amount of stake of available to user\n  /// @dev Emits Stake_Removed event if successful\n  /// @param amount Amount of tokens to remove from staking\n  /// @param vega_public_key Target Vega public key from which to deduct stake\n  function Remove_Stake(uint256 amount, bytes32 vega_public_key) public {\n    stake[msg.sender][vega_public_key] -= amount;\n    require(IERC20(staking_token).transfer(msg.sender, amount));\n    emit Stake_Removed(msg.sender, amount, vega_public_key);\n  }\n\n  /// @notice This transfers all stake from the sender's address to the \"new_address\"\n  /// @dev Emits Stake_Transfered event if successful\n  /// @param amount Stake amount to transfer\n  /// @param new_address Target ETH address to recieve the stake\n  /// @param vega_public_key Target Vega public key to be credited with the transfer\n  function Transfer_Stake(uint256 amount, address new_address, bytes32 vega_public_key) public {\n    stake[msg.sender][vega_public_key] -= amount;\n    stake[new_address][vega_public_key] += amount;\n    emit Stake_Transferred(msg.sender, amount, new_address, vega_public_key);\n  }\n}\n\n\n/**\nMMMMMMMMMMMMMMMMMMMMMMMMMMMMMMMMMMMMMMMMMMMMMMMMMMMMMMMMMMMM\nMMMMMMMMMMMMMMMMMMMMMMMMMMMMMMMMMMMMMMMMMMMMMMMMMMMMMMMMMMMM\nMMMMWEMMMMMMMMMMMMMMMMMMMMMMMMMM...............MMMMMMMMMMMMM\nMMMMMMLOVEMMMMMMMMMMMMMMMMMMMMMM...............MMMMMMMMMMMMM\nMMMMMMMMMMHIXELMMMMMMMMMMMM....................MMMMMNNMMMMMM\nMMMMMMMMMMMMMMMMMMMMMMMMMMM....................MMMMMMMMMMMMM\nMMMMMMMMMMMMMMMMMMMMMM88=........................+MMMMMMMMMM\nMMMMMMMMMMMMMMMMM....................MMMMM...MMMMMMMMMMMMMMM\nMMMMMMMMMMMMMMMMM....................MMMMM...MMMMMMMMMMMMMMM\nMMMMMMMMMMMM.........................MM+..MMM....+MMMMMMMMMM\nMMMMMMMMMNMM...................... ..MM?..MMM.. .+MMMMMMMMMM\nMMMMNDDMM+........................+MM........MM..+MMMMMMMMMM\nMMMMZ.............................+MM....................MMM\nMMMMZ.............................+MM....................MMM\nMMMMZ.............................+MM....................DDD\nMMMMZ.............................+MM..ZMMMMMMMMMMMMMMMMMMMM\nMMMMZ.............................+MM..ZMMMMMMMMMMMMMMMMMMMM\nMM..............................MMZ....ZMMMMMMMMMMMMMMMMMMMM\nMM............................MM.......ZMMMMMMMMMMMMMMMMMMMM\nMM............................MM.......ZMMMMMMMMMMMMMMMMMMMM\nMM......................ZMMMMM.......MMMMMMMMMMMMMMMMMMMMMMM\nMM............... ......ZMMMMM.... ..MMMMMMMMMMMMMMMMMMMMMMM\nMM...............MMMMM88~.........+MM..ZMMMMMMMMMMMMMMMMMMMM\nMM.......$DDDDDDD.......$DDDDD..DDNMM..ZMMMMMMMMMMMMMMMMMMMM\nMM.......$DDDDDDD.......$DDDDD..DDNMM..ZMMMMMMMMMMMMMMMMMMMM\nMM.......ZMMMMMMM.......ZMMMMM..MMMMM..ZMMMMMMMMMMMMMMMMMMMM\nMMMMMMMMM+.......MMMMM88NMMMMM..MMMMMMMMMMMMMMMMMMMMMMMMMMMM\nMMMMMMMMM+.......MMMMM88NMMMMM..MMMMMMMMMMMMMMMMMMMMMMMMMMMM\nMMMMMMMMMMMMMMMMMMMMMMMMMMMMMMMMMMMMMMMMMMMMMMMMMMMMMMMMMMMM\nMMMMMMMMMMMMMMMMMMMMMMMMMMMMMMMMMMMMMMMMMMMMMMMMMMMMMMMMMMMM*/\n",
  "sourcePath": "/home/danny/source/vega/Staking_Bridge/Staking_Bridge/contracts/Vega_Staking_Bridge.sol",
  "compiler": {
    "name": "solc",
    "version": "0.8.1+commit.df193b15.Emscripten.clang"
  },
  "schemaVersion": "3.3.2",
  "updatedAt": "2021-06-11T19:42:42.162Z",
  "devdoc": {
    "author": "Vega Protocol",
    "kind": "dev",
    "methods": {
      "Remove_Stake(uint256,bytes32)": {
        "details": "Emits Stake_Removed event if successful",
        "params": {
          "amount": "Amount of tokens to remove from staking",
          "vega_public_key": "Target Vega public key from which to deduct stake"
        }
      },
      "Stake(uint256,bytes32)": {
        "details": "Emits Stake_Deposited eventUser MUST run \"approve\" on token prior to running Stake",
        "params": {
          "amount": "Token amount to stake",
          "vega_public_key": "Target Vega public key to be credited with the stake"
        }
      },
      "Transfer_Stake(uint256,address,bytes32)": {
        "details": "Emits Stake_Transfered event if successful",
        "params": {
          "amount": "Stake amount to transfer",
          "new_address": "Target ETH address to recieve the stake",
          "vega_public_key": "Target Vega public key to be credited with the transfer"
        }
      }
    },
    "stateVariables": {
      "stake": {
        "details": "user => amount staked"
      }
    },
    "title": "ERC20 Staking Bridge",
    "version": 1
  },
  "userdoc": {
    "kind": "user",
    "methods": {
      "Remove_Stake(uint256,bytes32)": {
        "notice": "This removes specified amount of stake of available to user"
      },
      "Stake(uint256,bytes32)": {
        "notice": "This stakes the given amount of tokens and credits them to the provided Vega public key"
      },
      "Transfer_Stake(uint256,address,bytes32)": {
        "notice": "This transfers all stake from the sender's address to the \"new_address\""
      }
    },
    "notice": "This contract manages the vesting of the Vega V2 ERC20 token",
    "version": 1
  }
}