{
  "contractName": "Vega_2_TEST_STANDIN_DO_NOT_DEPLOY",
  "abi": [
    {
      "inputs": [
        {
          "internalType": "uint256",
          "name": "total_supply_",
          "type": "uint256"
        },
        {
          "internalType": "string",
          "name": "name_",
          "type": "string"
        },
        {
          "internalType": "string",
          "name": "symbol_",
          "type": "string"
        }
      ],
      "stateMutability": "nonpayable",
      "type": "constructor"
    },
    {
      "anonymous": false,
      "inputs": [
        {
          "indexed": true,
          "internalType": "address",
          "name": "owner",
          "type": "address"
        },
        {
          "indexed": true,
          "internalType": "address",
          "name": "spender",
          "type": "address"
        },
        {
          "indexed": false,
          "internalType": "uint256",
          "name": "value",
          "type": "uint256"
        }
      ],
      "name": "Approval",
      "type": "event"
    },
    {
      "anonymous": false,
      "inputs": [
        {
          "indexed": true,
          "internalType": "address",
          "name": "new_controller",
          "type": "address"
        }
      ],
      "name": "Controller_Changed",
      "type": "event"
    },
    {
      "anonymous": false,
      "inputs": [
        {
          "indexed": true,
          "internalType": "address",
          "name": "from",
          "type": "address"
        },
        {
          "indexed": true,
          "internalType": "address",
          "name": "to",
          "type": "address"
        },
        {
          "indexed": false,
          "internalType": "uint256",
          "name": "value",
          "type": "uint256"
        }
      ],
      "name": "Transfer",
      "type": "event"
    },
    {
      "inputs": [
        {
          "internalType": "address",
          "name": "owner",
          "type": "address"
        },
        {
          "internalType": "address",
          "name": "spender",
          "type": "address"
        }
      ],
      "name": "allowance",
      "outputs": [
        {
          "internalType": "uint256",
          "name": "",
          "type": "uint256"
        }
      ],
      "stateMutability": "view",
      "type": "function",
      "constant": true
    },
    {
      "inputs": [
        {
          "internalType": "address",
          "name": "spender",
          "type": "address"
        },
        {
          "internalType": "uint256",
          "name": "amount",
          "type": "uint256"
        }
      ],
      "name": "approve",
      "outputs": [
        {
          "internalType": "bool",
          "name": "",
          "type": "bool"
        }
      ],
      "stateMutability": "nonpayable",
      "type": "function"
    },
    {
      "inputs": [
        {
          "internalType": "address",
          "name": "account",
          "type": "address"
        }
      ],
      "name": "balanceOf",
      "outputs": [
        {
          "internalType": "uint256",
          "name": "",
          "type": "uint256"
        }
      ],
      "stateMutability": "view",
      "type": "function",
      "constant": true
    },
    {
      "inputs": [],
      "name": "decimals",
      "outputs": [
        {
          "internalType": "uint8",
          "name": "",
          "type": "uint8"
        }
      ],
      "stateMutability": "view",
      "type": "function",
      "constant": true
    },
    {
      "inputs": [
        {
          "internalType": "address",
          "name": "spender",
          "type": "address"
        },
        {
          "internalType": "uint256",
          "name": "subtractedValue",
          "type": "uint256"
        }
      ],
      "name": "decreaseAllowance",
      "outputs": [
        {
          "internalType": "bool",
          "name": "",
          "type": "bool"
        }
      ],
      "stateMutability": "nonpayable",
      "type": "function"
    },
    {
      "inputs": [
        {
          "internalType": "address",
          "name": "spender",
          "type": "address"
        },
        {
          "internalType": "uint256",
          "name": "addedValue",
          "type": "uint256"
        }
      ],
      "name": "increaseAllowance",
      "outputs": [
        {
          "internalType": "bool",
          "name": "",
          "type": "bool"
        }
      ],
      "stateMutability": "nonpayable",
      "type": "function"
    },
    {
      "inputs": [],
      "name": "name",
      "outputs": [
        {
          "internalType": "string",
          "name": "",
          "type": "string"
        }
      ],
      "stateMutability": "view",
      "type": "function",
      "constant": true
    },
    {
      "inputs": [],
      "name": "symbol",
      "outputs": [
        {
          "internalType": "string",
          "name": "",
          "type": "string"
        }
      ],
      "stateMutability": "view",
      "type": "function",
      "constant": true
    },
    {
      "inputs": [],
      "name": "totalSupply",
      "outputs": [
        {
          "internalType": "uint256",
          "name": "",
          "type": "uint256"
        }
      ],
      "stateMutability": "view",
      "type": "function",
      "constant": true
    },
    {
      "inputs": [
        {
          "internalType": "address",
          "name": "recipient",
          "type": "address"
        },
        {
          "internalType": "uint256",
          "name": "amount",
          "type": "uint256"
        }
      ],
      "name": "transfer",
      "outputs": [
        {
          "internalType": "bool",
          "name": "",
          "type": "bool"
        }
      ],
      "stateMutability": "nonpayable",
      "type": "function"
    },
    {
      "inputs": [
        {
          "internalType": "address",
          "name": "sender",
          "type": "address"
        },
        {
          "internalType": "address",
          "name": "recipient",
          "type": "address"
        },
        {
          "internalType": "uint256",
          "name": "amount",
          "type": "uint256"
        }
      ],
      "name": "transferFrom",
      "outputs": [
        {
          "internalType": "bool",
          "name": "",
          "type": "bool"
        }
      ],
      "stateMutability": "nonpayable",
      "type": "function"
    },
    {
      "inputs": [
        {
          "internalType": "address",
          "name": "new_controller",
          "type": "address"
        }
      ],
      "name": "change_controller",
      "outputs": [],
      "stateMutability": "nonpayable",
      "type": "function"
    },
    {
      "inputs": [
        {
          "internalType": "address",
          "name": "target",
          "type": "address"
        },
        {
          "internalType": "uint256",
          "name": "amount",
          "type": "uint256"
        }
      ],
      "name": "mint_and_issue",
      "outputs": [],
      "stateMutability": "nonpayable",
      "type": "function"
    }
  ],
  "bytecode": "0x60806040523480156200001157600080fd5b5060405162001f4d38038062001f4d8339818101604052810190620000379190620003d1565b818181600390805190602001906200005192919062000298565b5080600490805190602001906200006a92919062000298565b5050506200007f33846200012e60201b60201c565b33600560006101000a81548173ffffffffffffffffffffffffffffffffffffffff021916908373ffffffffffffffffffffffffffffffffffffffff160217905550600560009054906101000a900473ffffffffffffffffffffffffffffffffffffffff1673ffffffffffffffffffffffffffffffffffffffff167fdacf3394e265c5a9b5a0b8b7f9c64619dd468f6abe1fc900bd429e6a8700bed960405160405180910390a25050506200072a565b600073ffffffffffffffffffffffffffffffffffffffff168273ffffffffffffffffffffffffffffffffffffffff161415620001a1576040517f08c379a0000000000000000000000000000000000000000000000000000000008152600401620001989062000491565b60405180910390fd5b620001b5600083836200029360201b60201c565b8060026000828254620001c9919062000540565b92505081905550806000808473ffffffffffffffffffffffffffffffffffffffff1673ffffffffffffffffffffffffffffffffffffffff168152602001908152602001600020600082825462000220919062000540565b925050819055508173ffffffffffffffffffffffffffffffffffffffff16600073ffffffffffffffffffffffffffffffffffffffff167fddf252ad1be2c89b69c2b068fc378daa952ba7f163c4a11628f55a4df523b3ef83604051620002879190620004b3565b60405180910390a35050565b505050565b828054620002a690620005dd565b90600052602060002090601f016020900481019282620002ca576000855562000316565b82601f10620002e557805160ff191683800117855562000316565b8280016001018555821562000316579182015b8281111562000315578251825591602001919060010190620002f8565b5b50905062000325919062000329565b5090565b5b80821115620003445760008160009055506001016200032a565b5090565b60006200035f6200035984620004f9565b620004d0565b9050828152602081018484840111156200037857600080fd5b62000385848285620005a7565b509392505050565b600082601f8301126200039f57600080fd5b8151620003b184826020860162000348565b91505092915050565b600081519050620003cb8162000710565b92915050565b600080600060608486031215620003e757600080fd5b6000620003f786828701620003ba565b935050602084015167ffffffffffffffff8111156200041557600080fd5b62000423868287016200038d565b925050604084015167ffffffffffffffff8111156200044157600080fd5b6200044f868287016200038d565b9150509250925092565b600062000468601f836200052f565b91506200047582620006e7565b602082019050919050565b6200048b816200059d565b82525050565b60006020820190508181036000830152620004ac8162000459565b9050919050565b6000602082019050620004ca600083018462000480565b92915050565b6000620004dc620004ef565b9050620004ea828262000613565b919050565b6000604051905090565b600067ffffffffffffffff821115620005175762000516620006a7565b5b6200052282620006d6565b9050602081019050919050565b600082825260208201905092915050565b60006200054d826200059d565b91506200055a836200059d565b9250827fffffffffffffffffffffffffffffffffffffffffffffffffffffffffffffffff0382111562000592576200059162000649565b5b828201905092915050565b6000819050919050565b60005b83811015620005c7578082015181840152602081019050620005aa565b83811115620005d7576000848401525b50505050565b60006002820490506001821680620005f657607f821691505b602082108114156200060d576200060c62000678565b5b50919050565b6200061e82620006d6565b810181811067ffffffffffffffff8211171562000640576200063f620006a7565b5b80604052505050565b7f4e487b7100000000000000000000000000000000000000000000000000000000600052601160045260246000fd5b7f4e487b7100000000000000000000000000000000000000000000000000000000600052602260045260246000fd5b7f4e487b7100000000000000000000000000000000000000000000000000000000600052604160045260246000fd5b6000601f19601f8301169050919050565b7f45524332303a206d696e7420746f20746865207a65726f206164647265737300600082015250565b6200071b816200059d565b81146200072757600080fd5b50565b611813806200073a6000396000f3fe608060405234801561001057600080fd5b50600436106100cf5760003560e01c8063395093511161008c57806395d89b411161006657806395d89b4114610226578063a457c2d714610244578063a9059cbb14610274578063dd62ed3e146102a4576100cf565b806339509351146101aa57806370a08231146101da578063711d03ce1461020a576100cf565b806306fdde03146100d4578063095ea7b3146100f257806318160ddd1461012257806323b872dd1461014057806328231bf214610170578063313ce5671461018c575b600080fd5b6100dc6102d4565b6040516100e991906111ed565b60405180910390f35b61010c60048036038101906101079190610ff5565b610366565b60405161011991906111d2565b60405180910390f35b61012a610384565b604051610137919061132f565b60405180910390f35b61015a60048036038101906101559190610fa6565b61038e565b60405161016791906111d2565b60405180910390f35b61018a60048036038101906101859190610ff5565b61048f565b005b61019461052d565b6040516101a1919061134a565b60405180910390f35b6101c460048036038101906101bf9190610ff5565b610536565b6040516101d191906111d2565b60405180910390f35b6101f460048036038101906101ef9190610f41565b6105e2565b604051610201919061132f565b60405180910390f35b610224600480360381019061021f9190610f41565b61062a565b005b61022e610741565b60405161023b91906111ed565b60405180910390f35b61025e60048036038101906102599190610ff5565b6107d3565b60405161026b91906111d2565b60405180910390f35b61028e60048036038101906102899190610ff5565b6108c7565b60405161029b91906111d2565b60405180910390f35b6102be60048036038101906102b99190610f6a565b6108e5565b6040516102cb919061132f565b60405180910390f35b6060600380546102e390611493565b80601f016020809104026020016040519081016040528092919081815260200182805461030f90611493565b801561035c5780601f106103315761010080835404028352916020019161035c565b820191906000526020600020905b81548152906001019060200180831161033f57829003601f168201915b5050505050905090565b600061037a61037361096c565b8484610974565b6001905092915050565b6000600254905090565b600061039b848484610b3f565b6000600160008673ffffffffffffffffffffffffffffffffffffffff1673ffffffffffffffffffffffffffffffffffffffff16815260200190815260200160002060006103e661096c565b73ffffffffffffffffffffffffffffffffffffffff1673ffffffffffffffffffffffffffffffffffffffff16815260200190815260200160002054905082811015610466576040517f08c379a000000000000000000000000000000000000000000000000000000000815260040161045d9061128f565b60405180910390fd5b6104838561047261096c565b858461047e91906113d7565b610974565b60019150509392505050565b600560009054906101000a900473ffffffffffffffffffffffffffffffffffffffff1673ffffffffffffffffffffffffffffffffffffffff163373ffffffffffffffffffffffffffffffffffffffff161461051f576040517f08c379a00000000000000000000000000000000000000000000000000000000081526004016105169061126f565b60405180910390fd5b6105298282610dbe565b5050565b60006012905090565b60006105d861054361096c565b84846001600061055161096c565b73ffffffffffffffffffffffffffffffffffffffff1673ffffffffffffffffffffffffffffffffffffffff16815260200190815260200160002060008873ffffffffffffffffffffffffffffffffffffffff1673ffffffffffffffffffffffffffffffffffffffff168152602001908152602001600020546105d39190611381565b610974565b6001905092915050565b60008060008373ffffffffffffffffffffffffffffffffffffffff1673ffffffffffffffffffffffffffffffffffffffff168152602001908152602001600020549050919050565b600560009054906101000a900473ffffffffffffffffffffffffffffffffffffffff1673ffffffffffffffffffffffffffffffffffffffff163373ffffffffffffffffffffffffffffffffffffffff16146106ba576040517f08c379a00000000000000000000000000000000000000000000000000000000081526004016106b19061126f565b60405180910390fd5b80600560006101000a81548173ffffffffffffffffffffffffffffffffffffffff021916908373ffffffffffffffffffffffffffffffffffffffff1602179055508073ffffffffffffffffffffffffffffffffffffffff167fdacf3394e265c5a9b5a0b8b7f9c64619dd468f6abe1fc900bd429e6a8700bed960405160405180910390a250565b60606004805461075090611493565b80601f016020809104026020016040519081016040528092919081815260200182805461077c90611493565b80156107c95780601f1061079e576101008083540402835291602001916107c9565b820191906000526020600020905b8154815290600101906020018083116107ac57829003601f168201915b5050505050905090565b600080600160006107e261096c565b73ffffffffffffffffffffffffffffffffffffffff1673ffffffffffffffffffffffffffffffffffffffff16815260200190815260200160002060008573ffffffffffffffffffffffffffffffffffffffff1673ffffffffffffffffffffffffffffffffffffffff1681526020019081526020016000205490508281101561089f576040517f08c379a0000000000000000000000000000000000000000000000000000000008152600401610896906112ef565b60405180910390fd5b6108bc6108aa61096c565b8585846108b791906113d7565b610974565b600191505092915050565b60006108db6108d461096c565b8484610b3f565b6001905092915050565b6000600160008473ffffffffffffffffffffffffffffffffffffffff1673ffffffffffffffffffffffffffffffffffffffff16815260200190815260200160002060008373ffffffffffffffffffffffffffffffffffffffff1673ffffffffffffffffffffffffffffffffffffffff16815260200190815260200160002054905092915050565b600033905090565b600073ffffffffffffffffffffffffffffffffffffffff168373ffffffffffffffffffffffffffffffffffffffff1614156109e4576040517f08c379a00000000000000000000000000000000000000000000000000000000081526004016109db906112cf565b60405180910390fd5b600073ffffffffffffffffffffffffffffffffffffffff168273ffffffffffffffffffffffffffffffffffffffff161415610a54576040517f08c379a0000000000000000000000000000000000000000000000000000000008152600401610a4b9061122f565b60405180910390fd5b80600160008573ffffffffffffffffffffffffffffffffffffffff1673ffffffffffffffffffffffffffffffffffffffff16815260200190815260200160002060008473ffffffffffffffffffffffffffffffffffffffff1673ffffffffffffffffffffffffffffffffffffffff168152602001908152602001600020819055508173ffffffffffffffffffffffffffffffffffffffff168373ffffffffffffffffffffffffffffffffffffffff167f8c5be1e5ebec7d5bd14f71427d1e84f3dd0314c0f7b2291e5b200ac8c7c3b92583604051610b32919061132f565b60405180910390a3505050565b600073ffffffffffffffffffffffffffffffffffffffff168373ffffffffffffffffffffffffffffffffffffffff161415610baf576040517f08c379a0000000000000000000000000000000000000000000000000000000008152600401610ba6906112af565b60405180910390fd5b600073ffffffffffffffffffffffffffffffffffffffff168273ffffffffffffffffffffffffffffffffffffffff161415610c1f576040517f08c379a0000000000000000000000000000000000000000000000000000000008152600401610c169061120f565b60405180910390fd5b610c2a838383610f12565b60008060008573ffffffffffffffffffffffffffffffffffffffff1673ffffffffffffffffffffffffffffffffffffffff16815260200190815260200160002054905081811015610cb0576040517f08c379a0000000000000000000000000000000000000000000000000000000008152600401610ca79061124f565b60405180910390fd5b8181610cbc91906113d7565b6000808673ffffffffffffffffffffffffffffffffffffffff1673ffffffffffffffffffffffffffffffffffffffff16815260200190815260200160002081905550816000808573ffffffffffffffffffffffffffffffffffffffff1673ffffffffffffffffffffffffffffffffffffffff1681526020019081526020016000206000828254610d4c9190611381565b925050819055508273ffffffffffffffffffffffffffffffffffffffff168473ffffffffffffffffffffffffffffffffffffffff167fddf252ad1be2c89b69c2b068fc378daa952ba7f163c4a11628f55a4df523b3ef84604051610db0919061132f565b60405180910390a350505050565b600073ffffffffffffffffffffffffffffffffffffffff168273ffffffffffffffffffffffffffffffffffffffff161415610e2e576040517f08c379a0000000000000000000000000000000000000000000000000000000008152600401610e259061130f565b60405180910390fd5b610e3a60008383610f12565b8060026000828254610e4c9190611381565b92505081905550806000808473ffffffffffffffffffffffffffffffffffffffff1673ffffffffffffffffffffffffffffffffffffffff1681526020019081526020016000206000828254610ea19190611381565b925050819055508173ffffffffffffffffffffffffffffffffffffffff16600073ffffffffffffffffffffffffffffffffffffffff167fddf252ad1be2c89b69c2b068fc378daa952ba7f163c4a11628f55a4df523b3ef83604051610f06919061132f565b60405180910390a35050565b505050565b600081359050610f26816117af565b92915050565b600081359050610f3b816117c6565b92915050565b600060208284031215610f5357600080fd5b6000610f6184828501610f17565b91505092915050565b60008060408385031215610f7d57600080fd5b6000610f8b85828601610f17565b9250506020610f9c85828601610f17565b9150509250929050565b600080600060608486031215610fbb57600080fd5b6000610fc986828701610f17565b9350506020610fda86828701610f17565b9250506040610feb86828701610f2c565b9150509250925092565b6000806040838503121561100857600080fd5b600061101685828601610f17565b925050602061102785828601610f2c565b9150509250929050565b61103a8161141d565b82525050565b600061104b82611365565b6110558185611370565b9350611065818560208601611460565b61106e81611523565b840191505092915050565b6000611086602383611370565b915061109182611534565b604082019050919050565b60006110a9602283611370565b91506110b482611583565b604082019050919050565b60006110cc602683611370565b91506110d7826115d2565b604082019050919050565b60006110ef600f83611370565b91506110fa82611621565b602082019050919050565b6000611112602883611370565b915061111d8261164a565b604082019050919050565b6000611135602583611370565b915061114082611699565b604082019050919050565b6000611158602483611370565b9150611163826116e8565b604082019050919050565b600061117b602583611370565b915061118682611737565b604082019050919050565b600061119e601f83611370565b91506111a982611786565b602082019050919050565b6111bd81611449565b82525050565b6111cc81611453565b82525050565b60006020820190506111e76000830184611031565b92915050565b600060208201905081810360008301526112078184611040565b905092915050565b6000602082019050818103600083015261122881611079565b9050919050565b600060208201905081810360008301526112488161109c565b9050919050565b60006020820190508181036000830152611268816110bf565b9050919050565b60006020820190508181036000830152611288816110e2565b9050919050565b600060208201905081810360008301526112a881611105565b9050919050565b600060208201905081810360008301526112c881611128565b9050919050565b600060208201905081810360008301526112e88161114b565b9050919050565b600060208201905081810360008301526113088161116e565b9050919050565b6000602082019050818103600083015261132881611191565b9050919050565b600060208201905061134460008301846111b4565b92915050565b600060208201905061135f60008301846111c3565b92915050565b600081519050919050565b600082825260208201905092915050565b600061138c82611449565b915061139783611449565b9250827fffffffffffffffffffffffffffffffffffffffffffffffffffffffffffffffff038211156113cc576113cb6114c5565b5b828201905092915050565b60006113e282611449565b91506113ed83611449565b925082821015611400576113ff6114c5565b5b828203905092915050565b600061141682611429565b9050919050565b60008115159050919050565b600073ffffffffffffffffffffffffffffffffffffffff82169050919050565b6000819050919050565b600060ff82169050919050565b60005b8381101561147e578082015181840152602081019050611463565b8381111561148d576000848401525b50505050565b600060028204905060018216806114ab57607f821691505b602082108114156114bf576114be6114f4565b5b50919050565b7f4e487b7100000000000000000000000000000000000000000000000000000000600052601160045260246000fd5b7f4e487b7100000000000000000000000000000000000000000000000000000000600052602260045260246000fd5b6000601f19601f8301169050919050565b7f45524332303a207472616e7366657220746f20746865207a65726f206164647260008201527f6573730000000000000000000000000000000000000000000000000000000000602082015250565b7f45524332303a20617070726f766520746f20746865207a65726f20616464726560008201527f7373000000000000000000000000000000000000000000000000000000000000602082015250565b7f45524332303a207472616e7366657220616d6f756e742065786365656473206260008201527f616c616e63650000000000000000000000000000000000000000000000000000602082015250565b7f6f6e6c7920636f6e74726f6c6c65720000000000000000000000000000000000600082015250565b7f45524332303a207472616e7366657220616d6f756e742065786365656473206160008201527f6c6c6f77616e6365000000000000000000000000000000000000000000000000602082015250565b7f45524332303a207472616e736665722066726f6d20746865207a65726f20616460008201527f6472657373000000000000000000000000000000000000000000000000000000602082015250565b7f45524332303a20617070726f76652066726f6d20746865207a65726f2061646460008201527f7265737300000000000000000000000000000000000000000000000000000000602082015250565b7f45524332303a2064656372656173656420616c6c6f77616e63652062656c6f7760008201527f207a65726f000000000000000000000000000000000000000000000000000000602082015250565b7f45524332303a206d696e7420746f20746865207a65726f206164647265737300600082015250565b6117b88161140b565b81146117c357600080fd5b50565b6117cf81611449565b81146117da57600080fd5b5056fea26469706673582212201cb137d0592c9671b68a715c7d55ace5184d2e9ff54dcdc09611ff48cb2ac3f064736f6c63430008010033",
  "immutableReferences": {},
  "source": "// SPDX-License-Identifier: MIT\npragma solidity 0.8.1;\nimport \"./ERC20.sol\";\n\ncontract Vega_2_TEST_STANDIN_DO_NOT_DEPLOY is ERC20 {\n  address controller;\n\n  event Controller_Changed(address indexed new_controller);\n\n  constructor(uint256 total_supply_, string memory name_, string memory symbol_) ERC20 (name_, symbol_) {\n      _mint(msg.sender, total_supply_);\n      controller = msg.sender;\n      emit Controller_Changed(controller);\n  }\n  function change_controller(address new_controller) public {\n    require(msg.sender == controller, \"only controller\");\n    controller = new_controller;\n    emit Controller_Changed(new_controller);\n  }\n  function mint_and_issue(address target, uint256 amount) public {\n    require(msg.sender == controller, \"only controller\");\n    _mint(target, amount);\n  }\n}\n\n\n\n\n/**\nMMMMMMMMMMMMMMMMMMMMMMMMMMMMMMMMMMMMMMMMMMMMMMMMMMMMMMMMMMMM\nMMMMMMMMMMMMMMMMMMMMMMMMMMMMMMMMMMMMMMMMMMMMMMMMMMMMMMMMMMMM\nMMMMWEMMMMMMMMMMMMMMMMMMMMMMMMMM...............MMMMMMMMMMMMM\nMMMMMMLOVEMMMMMMMMMMMMMMMMMMMMMM...............MMMMMMMMMMMMM\nMMMMMMMMMMHIXELMMMMMMMMMMMM....................MMMMMNNMMMMMM\nMMMMMMMMMMMMMMMMMMMMMMMMMMM....................MMMMMMMMMMMMM\nMMMMMMMMMMMMMMMMMMMMMM88=........................+MMMMMMMMMM\nMMMMMMMMMMMMMMMMM....................MMMMM...MMMMMMMMMMMMMMM\nMMMMMMMMMMMMMMMMM....................MMMMM...MMMMMMMMMMMMMMM\nMMMMMMMMMMMM.........................MM+..MMM....+MMMMMMMMMM\nMMMMMMMMMNMM...................... ..MM?..MMM.. .+MMMMMMMMMM\nMMMMNDDMM+........................+MM........MM..+MMMMMMMMMM\nMMMMZ.............................+MM....................MMM\nMMMMZ.............................+MM....................MMM\nMMMMZ.............................+MM....................DDD\nMMMMZ.............................+MM..ZMMMMMMMMMMMMMMMMMMMM\nMMMMZ.............................+MM..ZMMMMMMMMMMMMMMMMMMMM\nMM..............................MMZ....ZMMMMMMMMMMMMMMMMMMMM\nMM............................MM.......ZMMMMMMMMMMMMMMMMMMMM\nMM............................MM.......ZMMMMMMMMMMMMMMMMMMMM\nMM......................ZMMMMM.......MMMMMMMMMMMMMMMMMMMMMMM\nMM............... ......ZMMMMM.... ..MMMMMMMMMMMMMMMMMMMMMMM\nMM...............MMMMM88~.........+MM..ZMMMMMMMMMMMMMMMMMMMM\nMM.......$DDDDDDD.......$DDDDD..DDNMM..ZMMMMMMMMMMMMMMMMMMMM\nMM.......$DDDDDDD.......$DDDDD..DDNMM..ZMMMMMMMMMMMMMMMMMMMM\nMM.......ZMMMMMMM.......ZMMMMM..MMMMM..ZMMMMMMMMMMMMMMMMMMMM\nMMMMMMMMM+.......MMMMM88NMMMMM..MMMMMMMMMMMMMMMMMMMMMMMMMMMM\nMMMMMMMMM+.......MMMMM88NMMMMM..MMMMMMMMMMMMMMMMMMMMMMMMMMMM\nMMMMMMMMMMMMMMMMMMMMMMMMMMMMMMMMMMMMMMMMMMMMMMMMMMMMMMMMMMMM\nMMMMMMMMMMMMMMMMMMMMMMMMMMMMMMMMMMMMMMMMMMMMMMMMMMMMMMMMMMMM*/\n",
  "sourcePath": "/home/danny/source/vega/Staking_Bridge/Staking_Bridge/contracts/Vega_2_TEST_STANDIN_DO_NOT_DEPLOY.sol",
  "compiler": {
    "name": "solc",
    "version": "0.8.1+commit.df193b15.Emscripten.clang"
  },
  "schemaVersion": "3.3.2",
  "updatedAt": "2021-06-09T18:40:43.377Z",
  "networkType": "ethereum",
  "devdoc": {
    "kind": "dev",
    "methods": {
      "allowance(address,address)": {
        "details": "See {IERC20-allowance}."
      },
      "approve(address,uint256)": {
        "details": "See {IERC20-approve}. Requirements: - `spender` cannot be the zero address."
      },
      "balanceOf(address)": {
        "details": "See {IERC20-balanceOf}."
      },
      "decimals()": {
        "details": "Returns the number of decimals used to get its user representation. For example, if `decimals` equals `2`, a balance of `505` tokens should be displayed to a user as `5,05` (`505 / 10 ** 2`). Tokens usually opt for a value of 18, imitating the relationship between Ether and Wei. This is the value {ERC20} uses, unless this function is overloaded; NOTE: This information is only used for _display_ purposes: it in no way affects any of the arithmetic of the contract, including {IERC20-balanceOf} and {IERC20-transfer}."
      },
      "decreaseAllowance(address,uint256)": {
        "details": "Atomically decreases the allowance granted to `spender` by the caller. This is an alternative to {approve} that can be used as a mitigation for problems described in {IERC20-approve}. Emits an {Approval} event indicating the updated allowance. Requirements: - `spender` cannot be the zero address. - `spender` must have allowance for the caller of at least `subtractedValue`."
      },
      "increaseAllowance(address,uint256)": {
        "details": "Atomically increases the allowance granted to `spender` by the caller. This is an alternative to {approve} that can be used as a mitigation for problems described in {IERC20-approve}. Emits an {Approval} event indicating the updated allowance. Requirements: - `spender` cannot be the zero address."
      },
      "name()": {
        "details": "Returns the name of the token."
      },
      "symbol()": {
        "details": "Returns the symbol of the token, usually a shorter version of the name."
      },
      "totalSupply()": {
        "details": "See {IERC20-totalSupply}."
      },
      "transfer(address,uint256)": {
        "details": "See {IERC20-transfer}. Requirements: - `recipient` cannot be the zero address. - the caller must have a balance of at least `amount`."
      },
      "transferFrom(address,address,uint256)": {
        "details": "See {IERC20-transferFrom}. Emits an {Approval} event indicating the updated allowance. This is not required by the EIP. See the note at the beginning of {ERC20}. Requirements: - `sender` and `recipient` cannot be the zero address. - `sender` must have a balance of at least `amount`. - the caller must have allowance for ``sender``'s tokens of at least `amount`."
      }
    },
    "version": 1
  },
  "userdoc": {
    "kind": "user",
    "methods": {},
    "version": 1
  }
}