{
  "contractName": "Vega_Staking_Bridge",
  "abi": [
    {
      "inputs": [
        {
          "internalType": "address",
          "name": "token",
          "type": "address"
        }
      ],
      "stateMutability": "nonpayable",
      "type": "constructor"
    },
    {
      "anonymous": false,
      "inputs": [
        {
          "indexed": true,
          "internalType": "address",
          "name": "user",
          "type": "address"
        },
        {
          "indexed": false,
          "internalType": "uint256",
          "name": "amount",
          "type": "uint256"
        },
        {
          "indexed": true,
          "internalType": "bytes32",
          "name": "vega_public_key",
          "type": "bytes32"
        }
      ],
      "name": "Stake_Deposited",
      "type": "event"
    },
    {
      "anonymous": false,
      "inputs": [
        {
          "indexed": true,
          "internalType": "address",
          "name": "user",
          "type": "address"
        },
        {
          "indexed": false,
          "internalType": "uint256",
          "name": "amount",
          "type": "uint256"
        },
        {
          "indexed": true,
          "internalType": "bytes32",
          "name": "vega_public_key",
          "type": "bytes32"
        }
      ],
      "name": "Stake_Removed",
      "type": "event"
    },
    {
      "anonymous": false,
      "inputs": [
        {
          "indexed": true,
          "internalType": "address",
          "name": "from",
          "type": "address"
        },
        {
          "indexed": false,
          "internalType": "uint256",
          "name": "amount",
          "type": "uint256"
        },
        {
          "indexed": true,
          "internalType": "address",
          "name": "to",
          "type": "address"
        },
        {
          "indexed": true,
          "internalType": "bytes32",
          "name": "vega_public_key",
          "type": "bytes32"
        }
      ],
      "name": "Stake_Transferred",
      "type": "event"
    },
    {
      "inputs": [
        {
          "internalType": "address",
          "name": "",
          "type": "address"
        },
        {
          "internalType": "bytes32",
          "name": "",
          "type": "bytes32"
        }
      ],
      "name": "stakes",
      "outputs": [
        {
          "internalType": "uint256",
          "name": "",
          "type": "uint256"
        }
      ],
      "stateMutability": "view",
      "type": "function"
    },
    {
      "inputs": [
        {
          "internalType": "uint256",
          "name": "amount",
          "type": "uint256"
        },
        {
          "internalType": "bytes32",
          "name": "vega_public_key",
          "type": "bytes32"
        }
      ],
      "name": "stake",
      "outputs": [],
      "stateMutability": "nonpayable",
      "type": "function"
    },
    {
      "inputs": [
        {
          "internalType": "uint256",
          "name": "amount",
          "type": "uint256"
        },
        {
          "internalType": "bytes32",
          "name": "vega_public_key",
          "type": "bytes32"
        }
      ],
      "name": "remove_stake",
      "outputs": [],
      "stateMutability": "nonpayable",
      "type": "function"
    },
    {
      "inputs": [
        {
          "internalType": "uint256",
          "name": "amount",
          "type": "uint256"
        },
        {
          "internalType": "address",
          "name": "new_address",
          "type": "address"
        },
        {
          "internalType": "bytes32",
          "name": "vega_public_key",
          "type": "bytes32"
        }
      ],
      "name": "transfer_stake",
      "outputs": [],
      "stateMutability": "nonpayable",
      "type": "function"
    },
    {
      "inputs": [],
      "name": "staking_token",
      "outputs": [
        {
          "internalType": "address",
          "name": "",
          "type": "address"
        }
      ],
      "stateMutability": "view",
      "type": "function"
    }
  ],
  "bytecode": "0x608060405234801561001057600080fd5b50604051610a0a380380610a0a8339818101604052810190610032919061008d565b806000806101000a81548173ffffffffffffffffffffffffffffffffffffffff021916908373ffffffffffffffffffffffffffffffffffffffff160217905550506100ff565b600081519050610087816100e8565b92915050565b60006020828403121561009f57600080fd5b60006100ad84828501610078565b91505092915050565b60006100c1826100c8565b9050919050565b600073ffffffffffffffffffffffffffffffffffffffff82169050919050565b6100f1816100b6565b81146100fc57600080fd5b50565b6108fc8061010e6000396000f3fe608060405234801561001057600080fd5b50600436106100575760003560e01c80632dc7d74c1461005c57806348c66e131461007a57806383c592cf1461009657806393074db6146100b2578063dd01ba0b146100e2575b600080fd5b6100646100fe565b60405161007191906106c9565b60405180910390f35b610094600480360381019061008f9190610620565b610127565b005b6100b060048036038101906100ab919061066f565b610260565b005b6100cc60048036038101906100c791906105bb565b6103d2565b6040516100d99190610744565b60405180910390f35b6100fc60048036038101906100f7919061066f565b6103f7565b005b60008060009054906101000a900473ffffffffffffffffffffffffffffffffffffffff16905090565b82600160003373ffffffffffffffffffffffffffffffffffffffff1673ffffffffffffffffffffffffffffffffffffffff1681526020019081526020016000206000838152602001908152602001600020600082825461018791906107b5565b9250508190555082600160008473ffffffffffffffffffffffffffffffffffffffff1673ffffffffffffffffffffffffffffffffffffffff168152602001908152602001600020600083815260200190815260200160002060008282546101ee919061075f565b92505081905550808273ffffffffffffffffffffffffffffffffffffffff163373ffffffffffffffffffffffffffffffffffffffff167f296aca09e6f616abedcd9cd45ac378207310452b7a713289374fd1b35e2c2fbe866040516102539190610744565b60405180910390a4505050565b60008054906101000a900473ffffffffffffffffffffffffffffffffffffffff1673ffffffffffffffffffffffffffffffffffffffff166323b872dd3330856040518463ffffffff1660e01b81526004016102bd939291906106e4565b602060405180830381600087803b1580156102d757600080fd5b505af11580156102eb573d6000803e3d6000fd5b505050506040513d601f19601f8201168201806040525081019061030f91906105f7565b61031857600080fd5b81600160003373ffffffffffffffffffffffffffffffffffffffff1673ffffffffffffffffffffffffffffffffffffffff16815260200190815260200160002060008381526020019081526020016000206000828254610378919061075f565b92505081905550803373ffffffffffffffffffffffffffffffffffffffff167f9e3e33edf5dcded4adabc51b1266225d00fa41516bfcad69513fa4eca69519da846040516103c69190610744565b60405180910390a35050565b6001602052816000526040600020602052806000526040600020600091509150505481565b81600160003373ffffffffffffffffffffffffffffffffffffffff1673ffffffffffffffffffffffffffffffffffffffff1681526020019081526020016000206000838152602001908152602001600020600082825461045791906107b5565b9250508190555060008054906101000a900473ffffffffffffffffffffffffffffffffffffffff1673ffffffffffffffffffffffffffffffffffffffff1663a9059cbb33846040518363ffffffff1660e01b81526004016104b992919061071b565b602060405180830381600087803b1580156104d357600080fd5b505af11580156104e7573d6000803e3d6000fd5b505050506040513d601f19601f8201168201806040525081019061050b91906105f7565b61051457600080fd5b803373ffffffffffffffffffffffffffffffffffffffff167fa131d16963736e4c641f27a7f82f2e350b5971e555ae06ae906892bbba0a09398460405161055b9190610744565b60405180910390a35050565b6000813590506105768161086a565b92915050565b60008151905061058b81610881565b92915050565b6000813590506105a081610898565b92915050565b6000813590506105b5816108af565b92915050565b600080604083850312156105ce57600080fd5b60006105dc85828601610567565b92505060206105ed85828601610591565b9150509250929050565b60006020828403121561060957600080fd5b60006106178482850161057c565b91505092915050565b60008060006060848603121561063557600080fd5b6000610643868287016105a6565b935050602061065486828701610567565b925050604061066586828701610591565b9150509250925092565b6000806040838503121561068257600080fd5b6000610690858286016105a6565b92505060206106a185828601610591565b9150509250929050565b6106b4816107e9565b82525050565b6106c381610831565b82525050565b60006020820190506106de60008301846106ab565b92915050565b60006060820190506106f960008301866106ab565b61070660208301856106ab565b61071360408301846106ba565b949350505050565b600060408201905061073060008301856106ab565b61073d60208301846106ba565b9392505050565b600060208201905061075960008301846106ba565b92915050565b600061076a82610831565b915061077583610831565b9250827fffffffffffffffffffffffffffffffffffffffffffffffffffffffffffffffff038211156107aa576107a961083b565b5b828201905092915050565b60006107c082610831565b91506107cb83610831565b9250828210156107de576107dd61083b565b5b828203905092915050565b60006107f482610811565b9050919050565b60008115159050919050565b6000819050919050565b600073ffffffffffffffffffffffffffffffffffffffff82169050919050565b6000819050919050565b7f4e487b7100000000000000000000000000000000000000000000000000000000600052601160045260246000fd5b610873816107e9565b811461087e57600080fd5b50565b61088a816107fb565b811461089557600080fd5b50565b6108a181610807565b81146108ac57600080fd5b50565b6108b881610831565b81146108c357600080fd5b5056fea2646970667358221220e7835fdc1287c69608a17d6d4751ff4664941c7f56444cf19852d22dc10dfd6b64736f6c63430008010033",
  "immutableReferences": {},
  "source": "\n//SPDX-License-Identifier: MIT\npragma solidity 0.8.1;\n\nimport \"./IERC20.sol\";\nimport \"./IStake.sol\";\n\n/// @title ERC20 Staking Bridge\n/// @author Vega Protocol\n/// @notice This contract manages the vesting of the Vega V2 ERC20 token\ncontract Vega_Staking_Bridge is IStake {\n  address _staking_token;\n\n  constructor(address token) {\n    _staking_token = token;\n  }\n\n  /// @dev user => amount staked\n  mapping(address => mapping(bytes32 => uint256)) public stakes;\n\n  /// @notice This stakes the given amount of tokens and credits them to the provided Vega public key\n  /// @param amount Token amount to stake\n  /// @param vega_public_key Target Vega public key to be credited with the stake\n  /// @dev Emits Stake_Deposited event\n  /// @dev User MUST run \"approve\" on token prior to running Stake\n  function stake(uint256 amount, bytes32 vega_public_key) public {\n    require(IERC20(_staking_token).transferFrom(msg.sender, address(this), amount));\n    stakes[msg.sender][vega_public_key] += amount;\n    emit Stake_Deposited(msg.sender, amount, vega_public_key);\n  }\n\n  /// @notice This removes specified amount of stake of available to user\n  /// @dev Emits Stake_Removed event if successful\n  /// @param amount Amount of tokens to remove from staking\n  /// @param vega_public_key Target Vega public key from which to deduct stake\n  function remove_stake(uint256 amount, bytes32 vega_public_key) public {\n    stakes[msg.sender][vega_public_key] -= amount;\n    require(IERC20(_staking_token).transfer(msg.sender, amount));\n    emit Stake_Removed(msg.sender, amount, vega_public_key);\n  }\n\n  /// @notice This transfers all stake from the sender's address to the \"new_address\"\n  /// @dev Emits Stake_Transfered event if successful\n  /// @param amount Stake amount to transfer\n  /// @param new_address Target ETH address to recieve the stake\n  /// @param vega_public_key Target Vega public key to be credited with the transfer\n  function transfer_stake(uint256 amount, address new_address, bytes32 vega_public_key) public {\n    stakes[msg.sender][vega_public_key] -= amount;\n    stakes[new_address][vega_public_key] += amount;\n    emit Stake_Transferred(msg.sender, amount, new_address, vega_public_key);\n  }\n\n  /// @return the address of the token that is able to be staked\n  function staking_token() external override view returns (address) {\n    return _staking_token;\n  }\n}\n\n\n/**\nMMMMMMMMMMMMMMMMMMMMMMMMMMMMMMMMMMMMMMMMMMMMMMMMMMMMMMMMMMMM\nMMMMMMMMMMMMMMMMMMMMMMMMMMMMMMMMMMMMMMMMMMMMMMMMMMMMMMMMMMMM\nMMMMWEMMMMMMMMMMMMMMMMMMMMMMMMMM...............MMMMMMMMMMMMM\nMMMMMMLOVEMMMMMMMMMMMMMMMMMMMMMM...............MMMMMMMMMMMMM\nMMMMMMMMMMHIXELMMMMMMMMMMMM....................MMMMMNNMMMMMM\nMMMMMMMMMMMMMMMMMMMMMMMMMMM....................MMMMMMMMMMMMM\nMMMMMMMMMMMMMMMMMMMMMM88=........................+MMMMMMMMMM\nMMMMMMMMMMMMMMMMM....................MMMMM...MMMMMMMMMMMMMMM\nMMMMMMMMMMMMMMMMM....................MMMMM...MMMMMMMMMMMMMMM\nMMMMMMMMMMMM.........................MM+..MMM....+MMMMMMMMMM\nMMMMMMMMMNMM...................... ..MM?..MMM.. .+MMMMMMMMMM\nMMMMNDDMM+........................+MM........MM..+MMMMMMMMMM\nMMMMZ.............................+MM....................MMM\nMMMMZ.............................+MM....................MMM\nMMMMZ.............................+MM....................DDD\nMMMMZ.............................+MM..ZMMMMMMMMMMMMMMMMMMMM\nMMMMZ.............................+MM..ZMMMMMMMMMMMMMMMMMMMM\nMM..............................MMZ....ZMMMMMMMMMMMMMMMMMMMM\nMM............................MM.......ZMMMMMMMMMMMMMMMMMMMM\nMM............................MM.......ZMMMMMMMMMMMMMMMMMMMM\nMM......................ZMMMMM.......MMMMMMMMMMMMMMMMMMMMMMM\nMM............... ......ZMMMMM.... ..MMMMMMMMMMMMMMMMMMMMMMM\nMM...............MMMMM88~.........+MM..ZMMMMMMMMMMMMMMMMMMMM\nMM.......$DDDDDDD.......$DDDDD..DDNMM..ZMMMMMMMMMMMMMMMMMMMM\nMM.......$DDDDDDD.......$DDDDD..DDNMM..ZMMMMMMMMMMMMMMMMMMMM\nMM.......ZMMMMMMM.......ZMMMMM..MMMMM..ZMMMMMMMMMMMMMMMMMMMM\nMMMMMMMMM+.......MMMMM88NMMMMM..MMMMMMMMMMMMMMMMMMMMMMMMMMMM\nMMMMMMMMM+.......MMMMM88NMMMMM..MMMMMMMMMMMMMMMMMMMMMMMMMMMM\nMMMMMMMMMMMMMMMMMMMMMMMMMMMMMMMMMMMMMMMMMMMMMMMMMMMMMMMMMMMM\nMMMMMMMMMMMMMMMMMMMMMMMMMMMMMMMMMMMMMMMMMMMMMMMMMMMMMMMMMMMM*/\n",
  "sourcePath": "/home/danny/source/vega/Staking_Bridge/Staking_Bridge/contracts/Vega_Staking_Bridge.sol",
  "compiler": {
    "name": "solc",
    "version": "0.8.1+commit.df193b15.Emscripten.clang"
  },
  "schemaVersion": "3.3.2",
  "updatedAt": "2021-06-14T13:57:03.829Z",
  "devdoc": {
    "author": "Vega Protocol",
    "kind": "dev",
    "methods": {
      "remove_stake(uint256,bytes32)": {
        "details": "Emits Stake_Removed event if successful",
        "params": {
          "amount": "Amount of tokens to remove from staking",
          "vega_public_key": "Target Vega public key from which to deduct stake"
        }
      },
      "stake(uint256,bytes32)": {
        "details": "Emits Stake_Deposited eventUser MUST run \"approve\" on token prior to running Stake",
        "params": {
          "amount": "Token amount to stake",
          "vega_public_key": "Target Vega public key to be credited with the stake"
        }
      },
      "staking_token()": {
        "returns": {
          "_0": "the address of the token that is able to be staked"
        }
      },
      "transfer_stake(uint256,address,bytes32)": {
        "details": "Emits Stake_Transfered event if successful",
        "params": {
          "amount": "Stake amount to transfer",
          "new_address": "Target ETH address to recieve the stake",
          "vega_public_key": "Target Vega public key to be credited with the transfer"
        }
      }
    },
    "stateVariables": {
      "stakes": {
        "details": "user => amount staked"
      }
    },
    "title": "ERC20 Staking Bridge",
    "version": 1
  },
  "userdoc": {
    "kind": "user",
    "methods": {
      "remove_stake(uint256,bytes32)": {
        "notice": "This removes specified amount of stake of available to user"
      },
      "stake(uint256,bytes32)": {
        "notice": "This stakes the given amount of tokens and credits them to the provided Vega public key"
      },
      "transfer_stake(uint256,address,bytes32)": {
        "notice": "This transfers all stake from the sender's address to the \"new_address\""
      }
    },
    "notice": "This contract manages the vesting of the Vega V2 ERC20 token",
    "version": 1
  }
}