{
  "contractName": "Vega_Staking_Bridge",
  "abi": [
    {
      "inputs": [
        {
          "internalType": "address",
          "name": "token",
          "type": "address"
        }
      ],
      "stateMutability": "nonpayable",
      "type": "constructor"
    },
    {
      "anonymous": false,
      "inputs": [
        {
          "indexed": true,
          "internalType": "address",
          "name": "user",
          "type": "address"
        },
        {
          "indexed": false,
          "internalType": "uint256",
          "name": "amount",
          "type": "uint256"
        },
        {
          "indexed": true,
          "internalType": "bytes32",
          "name": "vega_public_key",
          "type": "bytes32"
        }
      ],
      "name": "Stake_Deposited",
      "type": "event"
    },
    {
      "anonymous": false,
      "inputs": [
        {
          "indexed": true,
          "internalType": "address",
          "name": "user",
          "type": "address"
        },
        {
          "indexed": false,
          "internalType": "uint256",
          "name": "amount",
          "type": "uint256"
        },
        {
          "indexed": true,
          "internalType": "bytes32",
          "name": "vega_public_key",
          "type": "bytes32"
        }
      ],
      "name": "Stake_Removed",
      "type": "event"
    },
    {
      "anonymous": false,
      "inputs": [
        {
          "indexed": true,
          "internalType": "address",
          "name": "from",
          "type": "address"
        },
        {
          "indexed": false,
          "internalType": "uint256",
          "name": "amount",
          "type": "uint256"
        },
        {
          "indexed": true,
          "internalType": "address",
          "name": "to",
          "type": "address"
        },
        {
          "indexed": true,
          "internalType": "bytes32",
          "name": "vega_public_key",
          "type": "bytes32"
        }
      ],
      "name": "Stake_Transferred",
      "type": "event"
    },
    {
      "inputs": [
        {
          "internalType": "uint256",
          "name": "amount",
          "type": "uint256"
        },
        {
          "internalType": "bytes32",
          "name": "vega_public_key",
          "type": "bytes32"
        }
      ],
      "name": "stake",
      "outputs": [],
      "stateMutability": "nonpayable",
      "type": "function"
    },
    {
      "inputs": [
        {
          "internalType": "uint256",
          "name": "amount",
          "type": "uint256"
        },
        {
          "internalType": "bytes32",
          "name": "vega_public_key",
          "type": "bytes32"
        }
      ],
      "name": "remove_stake",
      "outputs": [],
      "stateMutability": "nonpayable",
      "type": "function"
    },
    {
      "inputs": [
        {
          "internalType": "uint256",
          "name": "amount",
          "type": "uint256"
        },
        {
          "internalType": "address",
          "name": "new_address",
          "type": "address"
        },
        {
          "internalType": "bytes32",
          "name": "vega_public_key",
          "type": "bytes32"
        }
      ],
      "name": "transfer_stake",
      "outputs": [],
      "stateMutability": "nonpayable",
      "type": "function"
    },
    {
      "inputs": [],
      "name": "staking_token",
      "outputs": [
        {
          "internalType": "address",
          "name": "",
          "type": "address"
        }
      ],
      "stateMutability": "view",
      "type": "function"
    },
    {
      "inputs": [
        {
          "internalType": "address",
          "name": "target",
          "type": "address"
        },
        {
          "internalType": "bytes32",
          "name": "vega_public_key",
          "type": "bytes32"
        }
      ],
      "name": "stake_balance",
      "outputs": [
        {
          "internalType": "uint256",
          "name": "",
          "type": "uint256"
        }
      ],
      "stateMutability": "view",
      "type": "function"
    }
  ],
  "bytecode": "0x608060405234801561001057600080fd5b50604051610a40380380610a408339818101604052810190610032919061008d565b806000806101000a81548173ffffffffffffffffffffffffffffffffffffffff021916908373ffffffffffffffffffffffffffffffffffffffff160217905550506100ff565b600081519050610087816100e8565b92915050565b60006020828403121561009f57600080fd5b60006100ad84828501610078565b91505092915050565b60006100c1826100c8565b9050919050565b600073ffffffffffffffffffffffffffffffffffffffff82169050919050565b6100f1816100b6565b81146100fc57600080fd5b50565b6109328061010e6000396000f3fe608060405234801561001057600080fd5b50600436106100575760003560e01c8063274abf341461005c5780632dc7d74c1461008c57806348c66e13146100aa57806383c592cf146100c6578063dd01ba0b146100e2575b600080fd5b610076600480360381019061007191906105f1565b6100fe565b604051610083919061077a565b60405180910390f35b610094610159565b6040516100a191906106ff565b60405180910390f35b6100c460048036038101906100bf9190610656565b610182565b005b6100e060048036038101906100db91906106a5565b6102bb565b005b6100fc60048036038101906100f791906106a5565b61042d565b005b6000600160008473ffffffffffffffffffffffffffffffffffffffff1673ffffffffffffffffffffffffffffffffffffffff168152602001908152602001600020600083815260200190815260200160002054905092915050565b60008060009054906101000a900473ffffffffffffffffffffffffffffffffffffffff16905090565b82600160003373ffffffffffffffffffffffffffffffffffffffff1673ffffffffffffffffffffffffffffffffffffffff168152602001908152602001600020600083815260200190815260200160002060008282546101e291906107eb565b9250508190555082600160008473ffffffffffffffffffffffffffffffffffffffff1673ffffffffffffffffffffffffffffffffffffffff168152602001908152602001600020600083815260200190815260200160002060008282546102499190610795565b92505081905550808273ffffffffffffffffffffffffffffffffffffffff163373ffffffffffffffffffffffffffffffffffffffff167f296aca09e6f616abedcd9cd45ac378207310452b7a713289374fd1b35e2c2fbe866040516102ae919061077a565b60405180910390a4505050565b60008054906101000a900473ffffffffffffffffffffffffffffffffffffffff1673ffffffffffffffffffffffffffffffffffffffff166323b872dd3330856040518463ffffffff1660e01b81526004016103189392919061071a565b602060405180830381600087803b15801561033257600080fd5b505af1158015610346573d6000803e3d6000fd5b505050506040513d601f19601f8201168201806040525081019061036a919061062d565b61037357600080fd5b81600160003373ffffffffffffffffffffffffffffffffffffffff1673ffffffffffffffffffffffffffffffffffffffff168152602001908152602001600020600083815260200190815260200160002060008282546103d39190610795565b92505081905550803373ffffffffffffffffffffffffffffffffffffffff167f9e3e33edf5dcded4adabc51b1266225d00fa41516bfcad69513fa4eca69519da84604051610421919061077a565b60405180910390a35050565b81600160003373ffffffffffffffffffffffffffffffffffffffff1673ffffffffffffffffffffffffffffffffffffffff1681526020019081526020016000206000838152602001908152602001600020600082825461048d91906107eb565b9250508190555060008054906101000a900473ffffffffffffffffffffffffffffffffffffffff1673ffffffffffffffffffffffffffffffffffffffff1663a9059cbb33846040518363ffffffff1660e01b81526004016104ef929190610751565b602060405180830381600087803b15801561050957600080fd5b505af115801561051d573d6000803e3d6000fd5b505050506040513d601f19601f82011682018060405250810190610541919061062d565b61054a57600080fd5b803373ffffffffffffffffffffffffffffffffffffffff167fa131d16963736e4c641f27a7f82f2e350b5971e555ae06ae906892bbba0a093984604051610591919061077a565b60405180910390a35050565b6000813590506105ac816108a0565b92915050565b6000815190506105c1816108b7565b92915050565b6000813590506105d6816108ce565b92915050565b6000813590506105eb816108e5565b92915050565b6000806040838503121561060457600080fd5b60006106128582860161059d565b9250506020610623858286016105c7565b9150509250929050565b60006020828403121561063f57600080fd5b600061064d848285016105b2565b91505092915050565b60008060006060848603121561066b57600080fd5b6000610679868287016105dc565b935050602061068a8682870161059d565b925050604061069b868287016105c7565b9150509250925092565b600080604083850312156106b857600080fd5b60006106c6858286016105dc565b92505060206106d7858286016105c7565b9150509250929050565b6106ea8161081f565b82525050565b6106f981610867565b82525050565b600060208201905061071460008301846106e1565b92915050565b600060608201905061072f60008301866106e1565b61073c60208301856106e1565b61074960408301846106f0565b949350505050565b600060408201905061076660008301856106e1565b61077360208301846106f0565b9392505050565b600060208201905061078f60008301846106f0565b92915050565b60006107a082610867565b91506107ab83610867565b9250827fffffffffffffffffffffffffffffffffffffffffffffffffffffffffffffffff038211156107e0576107df610871565b5b828201905092915050565b60006107f682610867565b915061080183610867565b92508282101561081457610813610871565b5b828203905092915050565b600061082a82610847565b9050919050565b60008115159050919050565b6000819050919050565b600073ffffffffffffffffffffffffffffffffffffffff82169050919050565b6000819050919050565b7f4e487b7100000000000000000000000000000000000000000000000000000000600052601160045260246000fd5b6108a98161081f565b81146108b457600080fd5b50565b6108c081610831565b81146108cb57600080fd5b50565b6108d78161083d565b81146108e257600080fd5b50565b6108ee81610867565b81146108f957600080fd5b5056fea26469706673582212203fb6630499269c9545010c2aaf3fa130f3db33da56cff5d34c187c48c48c6a0564736f6c63430008010033",
  "immutableReferences": {},
  "source": "\n//SPDX-License-Identifier: MIT\npragma solidity 0.8.1;\n\nimport \"./IERC20.sol\";\nimport \"./IStake.sol\";\n\n/// @title ERC20 Staking Bridge\n/// @author Vega Protocol\n/// @notice This contract manages the vesting of the Vega V2 ERC20 token\ncontract Vega_Staking_Bridge is IStake {\n  address _staking_token;\n\n  constructor(address token) {\n    _staking_token = token;\n  }\n\n  /// @dev user => amount staked\n  mapping(address => mapping(bytes32 => uint256)) stakes;\n\n  /// @notice This stakes the given amount of tokens and credits them to the provided Vega public key\n  /// @param amount Token amount to stake\n  /// @param vega_public_key Target Vega public key to be credited with the stake\n  /// @dev Emits Stake_Deposited event\n  /// @dev User MUST run \"approve\" on token prior to running Stake\n  function stake(uint256 amount, bytes32 vega_public_key) public {\n    require(IERC20(_staking_token).transferFrom(msg.sender, address(this), amount));\n    stakes[msg.sender][vega_public_key] += amount;\n    emit Stake_Deposited(msg.sender, amount, vega_public_key);\n  }\n\n  /// @notice This removes specified amount of stake of available to user\n  /// @dev Emits Stake_Removed event if successful\n  /// @param amount Amount of tokens to remove from staking\n  /// @param vega_public_key Target Vega public key from which to deduct stake\n  function remove_stake(uint256 amount, bytes32 vega_public_key) public {\n    stakes[msg.sender][vega_public_key] -= amount;\n    require(IERC20(_staking_token).transfer(msg.sender, amount));\n    emit Stake_Removed(msg.sender, amount, vega_public_key);\n  }\n\n  /// @notice This transfers all stake from the sender's address to the \"new_address\"\n  /// @dev Emits Stake_Transfered event if successful\n  /// @param amount Stake amount to transfer\n  /// @param new_address Target ETH address to recieve the stake\n  /// @param vega_public_key Target Vega public key to be credited with the transfer\n  function transfer_stake(uint256 amount, address new_address, bytes32 vega_public_key) public {\n    stakes[msg.sender][vega_public_key] -= amount;\n    stakes[new_address][vega_public_key] += amount;\n    emit Stake_Transferred(msg.sender, amount, new_address, vega_public_key);\n  }\n\n  /// @dev This is IStake.staking_token\n  /// @return the address of the token that is able to be staked\n  function staking_token() external override view returns (address) {\n    return _staking_token;\n  }\n\n  /// @dev This is IStake.stake_balance\n  /// @param target Target address to check\n  /// @param vega_public_key Target vega public key to check\n  /// @return the number of tokens staked for that address->vega_public_key pair\n  function stake_balance(address target, bytes32 vega_public_key) external override view returns (uint256) {\n    return  stakes[target][vega_public_key];\n  }\n}\n\n\n/**\nMMMMMMMMMMMMMMMMMMMMMMMMMMMMMMMMMMMMMMMMMMMMMMMMMMMMMMMMMMMM\nMMMMMMMMMMMMMMMMMMMMMMMMMMMMMMMMMMMMMMMMMMMMMMMMMMMMMMMMMMMM\nMMMMWEMMMMMMMMMMMMMMMMMMMMMMMMMM...............MMMMMMMMMMMMM\nMMMMMMLOVEMMMMMMMMMMMMMMMMMMMMMM...............MMMMMMMMMMMMM\nMMMMMMMMMMHIXELMMMMMMMMMMMM....................MMMMMNNMMMMMM\nMMMMMMMMMMMMMMMMMMMMMMMMMMM....................MMMMMMMMMMMMM\nMMMMMMMMMMMMMMMMMMMMMM88=........................+MMMMMMMMMM\nMMMMMMMMMMMMMMMMM....................MMMMM...MMMMMMMMMMMMMMM\nMMMMMMMMMMMMMMMMM....................MMMMM...MMMMMMMMMMMMMMM\nMMMMMMMMMMMM.........................MM+..MMM....+MMMMMMMMMM\nMMMMMMMMMNMM...................... ..MM?..MMM.. .+MMMMMMMMMM\nMMMMNDDMM+........................+MM........MM..+MMMMMMMMMM\nMMMMZ.............................+MM....................MMM\nMMMMZ.............................+MM....................MMM\nMMMMZ.............................+MM....................DDD\nMMMMZ.............................+MM..ZMMMMMMMMMMMMMMMMMMMM\nMMMMZ.............................+MM..ZMMMMMMMMMMMMMMMMMMMM\nMM..............................MMZ....ZMMMMMMMMMMMMMMMMMMMM\nMM............................MM.......ZMMMMMMMMMMMMMMMMMMMM\nMM............................MM.......ZMMMMMMMMMMMMMMMMMMMM\nMM......................ZMMMMM.......MMMMMMMMMMMMMMMMMMMMMMM\nMM............... ......ZMMMMM.... ..MMMMMMMMMMMMMMMMMMMMMMM\nMM...............MMMMM88~.........+MM..ZMMMMMMMMMMMMMMMMMMMM\nMM.......$DDDDDDD.......$DDDDD..DDNMM..ZMMMMMMMMMMMMMMMMMMMM\nMM.......$DDDDDDD.......$DDDDD..DDNMM..ZMMMMMMMMMMMMMMMMMMMM\nMM.......ZMMMMMMM.......ZMMMMM..MMMMM..ZMMMMMMMMMMMMMMMMMMMM\nMMMMMMMMM+.......MMMMM88NMMMMM..MMMMMMMMMMMMMMMMMMMMMMMMMMMM\nMMMMMMMMM+.......MMMMM88NMMMMM..MMMMMMMMMMMMMMMMMMMMMMMMMMMM\nMMMMMMMMMMMMMMMMMMMMMMMMMMMMMMMMMMMMMMMMMMMMMMMMMMMMMMMMMMMM\nMMMMMMMMMMMMMMMMMMMMMMMMMMMMMMMMMMMMMMMMMMMMMMMMMMMMMMMMMMMM*/\n",
  "sourcePath": "/home/danny/source/vega/Staking_Bridge/Staking_Bridge/contracts/Vega_Staking_Bridge.sol",
  "compiler": {
    "name": "solc",
    "version": "0.8.1+commit.df193b15.Emscripten.clang"
  },
  "schemaVersion": "3.3.2",
  "updatedAt": "2021-06-14T15:25:36.719Z",
  "devdoc": {
    "author": "Vega Protocol",
    "kind": "dev",
    "methods": {
      "remove_stake(uint256,bytes32)": {
        "details": "Emits Stake_Removed event if successful",
        "params": {
          "amount": "Amount of tokens to remove from staking",
          "vega_public_key": "Target Vega public key from which to deduct stake"
        }
      },
      "stake(uint256,bytes32)": {
        "details": "Emits Stake_Deposited eventUser MUST run \"approve\" on token prior to running Stake",
        "params": {
          "amount": "Token amount to stake",
          "vega_public_key": "Target Vega public key to be credited with the stake"
        }
      },
      "stake_balance(address,bytes32)": {
        "details": "This is IStake.stake_balance",
        "params": {
          "target": "Target address to check",
          "vega_public_key": "Target vega public key to check"
        },
        "returns": {
          "_0": "the number of tokens staked for that address->vega_public_key pair"
        }
      },
      "staking_token()": {
        "details": "This is IStake.staking_token",
        "returns": {
          "_0": "the address of the token that is able to be staked"
        }
      },
      "transfer_stake(uint256,address,bytes32)": {
        "details": "Emits Stake_Transfered event if successful",
        "params": {
          "amount": "Stake amount to transfer",
          "new_address": "Target ETH address to recieve the stake",
          "vega_public_key": "Target Vega public key to be credited with the transfer"
        }
      }
    },
    "stateVariables": {
      "stakes": {
        "details": "user => amount staked"
      }
    },
    "title": "ERC20 Staking Bridge",
    "version": 1
  },
  "userdoc": {
    "kind": "user",
    "methods": {
      "remove_stake(uint256,bytes32)": {
        "notice": "This removes specified amount of stake of available to user"
      },
      "stake(uint256,bytes32)": {
        "notice": "This stakes the given amount of tokens and credits them to the provided Vega public key"
      },
      "transfer_stake(uint256,address,bytes32)": {
        "notice": "This transfers all stake from the sender's address to the \"new_address\""
      }
    },
    "notice": "This contract manages the vesting of the Vega V2 ERC20 token",
    "version": 1
  }
}